:020000040800F2
:1000000008050020450100089F0F0008570F000851
:100010009D0F0008E902000891110008000000008F
:10002000000000000000000000000000A30F000816
:10003000EB02000800000000A10F0008A50F000857
:100040005F0100085F0100085F0100085F01000810
:100050005F0100085F010008D90300085F01000884
:100060005F0100085F0100085F0100085F010008F0
:100070005F0100085F0100085F0100085F010008E0
:100080005F0100085F0100085F0100085F010008D0
:100090005F0100085F0100085F0100085F010008C0
:1000A0005F0100085F0100085F0100085F010008B0
:1000B0005F0100085F010008F90F00085F010008F8
:1000C0005F0100085F0100085F0100085F01000890
:1000D0005F010008211100085F0100085F010008AE
:1000E0005F0100085F0100085F0100085F01000870
:1000F0005F0100085F0100085F0100085F01000860
:100100005F0100085F0100085F0100085F0100084F
:100110005F0100085F0100085F0100085F0100083F
:100120005F0100085F0100085F0100085F0100082F
:10013000DFF80CD000F02AF800480047F914000856
:10014000080500200648804706480047FEE7FEE70E
:10015000FEE7FEE7FEE7FEE7FEE7FEE7FEE7FEE777
:10016000F70F000831010008D2B201E000F8012BBE
:10017000491EFBD270470022F6E710B513460A4627
:1001800004461946FFF7F0FF204610BD064C074D08
:1001900006E0E06840F0010394E807009847103457
:1001A000AC42F6D3FFF7C8FF84150008A415000879
:1001B0002DE9F047474886B00025816941F00401E8
:1001C0008161816901F004010491816941F00801B4
:1001D0008161816901F008010491816941F0400168
:1001E0008161816901F040010491816941F0200140
:1001F00081618069012400F020000490A020CDE9F5
:1002000000040327344ECDE902476946304600F02A
:1002100059F94020CDE9000569463046029500F0C5
:1002200051F96003CDE900040226DFF8B0A0CDE962
:1002300002466946504600F045F94FF48048CDE942
:10024000008569465046029500F03CF94FF4E050B5
:100250008DE871006946504600F034F94FF4607043
:100260008DE8710069461E4800F02CF94FF42040DB
:10027000CDE90004DFF86C90CDE9024769464846B5
:1002800000F020F9CDE9008569464846029500F066
:1002900019F9E002CDE9000469464846029400F0ED
:1002A00011F92003CDE900056946504600F00AF92E
:1002B00078028DE8B1006946484600F003F940F243
:1002C00081308DE871006946504600F0FBF806B0B9
:1002D000BDE8F0870010024000080140001801400E
:1002E00000140140000C0140FEE7704730B527487C
:1002F00085B0816941F004018161816901F00401E7
:100300000491816941F004018161816901F0040176
:100310000491816941F48041816180691C4C00F441
:10032000804004904FF40070009002200190012062
:100330000290032003906946204600F0C3F8201580
:100340000025CDE900056946204600F0BBF80022F3
:100350001146252000F004FA252000F0F4F90E4C97
:100360000C4820604FF4E130C4E90105E5600C2041
:100370002561C4E90505204600F061FD2068C168DB
:1003800041F02001C16005B030BD00000010024006
:100390000008014000380140C000002077214322BE
:1003A000521E1204120CFBD1491E0904090CF6D18D
:1003B000401E10F0FF00F1D170470821491E11F0D6
:1003C000FF01FBD1401E10F0FF00F6D17047401E28
:1003D00010F0FF00FBD1704710B5064C2068C00735
:1003E00007D001F067F804494FF4001008600120BD
:1003F000206010BD14040140100C01400F4800B5EE
:10040000816985B041F0040181618069694600F02D
:1004100004000490012000900948019000200290FF
:10042000084800F04FF800221146062000F098F925
:10043000062000F088F905B000BD00000010024061
:10044000000011100008014030B560B11A4B02687D
:1004500014219A4209D2194B1344B3FBF1F18900DC
:10046000016417490AE0012030BD134B5B4213447D
:10047000B3FBF1F1890001640F490839C16302211E
:1004800080F82110136843F6F0718B43F0E90114F2
:100490002143D0E902452C432143046921434469A7
:1004A00021438469214319431160002141630122E2
:1004B00042770177084630BD08040240F8FFFDBFCF
:1004C000000002402DE9F84FDFF8C891002409F13F
:1004D000040A0AF1040B23460F270BF1040ED1E0A6
:1004E0000125A54006EA0502AA4276D1DFF8A8C197
:1004F0004E68A6EB0C0866452BD00DDC032E34D0DD
:1005000005DC36B3012E19D0022E2FD11BE0112E9F
:1005100016D0122E2AD119E0B8F5881F19D006DCA2
:10052000B8F5803F15D0B8F5801F1FD111E0B8F5A0
:10053000001F0ED0B8F5041F18D10AE0CB6815E0F3
:10054000CB681B1D12E0CB6808330FE0CB680C337F
:100550000CE08B682BB1012B4FF0080303D04561F1
:1005600004E0042302E0056100E00023FF2A01D833
:10057000064601E000F104064FEA840501D9A5F121
:100580002005D6F8008007FA05FC28EA0C0803FAD3
:1005900005F548EA0508C6F800804D68ED0070D5FD
:1005A0003E4DAE6946F00106AE61AD6924F003062A
:1005B00005F0010500953A4D06EB050CDCF80850F6
:1005C000A607360F07FA06F825EA0805DFF8D480F3
:1005D000404503D14FF0000825E052E0DFF8C88025
:1005E000404502D14FF001081DE0DFF8C0804045D2
:1005F00002D14FF0020816E0DFF8B480404502D186
:100600004FF003080FE0DFF8AC80404502D14FF017
:10061000040808E0DFF8A080404502D14FF005084B
:1006200001E04FF0060808FA06F848EA0508CCF899
:1006300008804D68D9F80060ED034D4601D516439A
:1006400000E096432E604D68DAF80060AD03554631
:1006500001D5164300E096432E604D68DBF800603C
:10066000ED025D4601D5164300E096432E604D68CD
:10067000DEF80060AD02754601D5164300E09643F2
:100680002E60641C0A681646E2407FF429AFBDE87C
:10069000F88F00000004014000001110001002401B
:1006A0000000014000080140000C01400010014022
:1006B0000014014000180140001C014080680840FF
:1006C00000D001207047000001488068704700009A
:1006D000040000200248816802781144816070475C
:1006E0000400002070B50D4D04464FF47A7128784F
:1006F000B1FBF0F00A490968B1FBF0F000F0CCFA68
:1007000048B9102C07D200222146501E00F028F8CC
:1007100000206C6070BD012070BD0000040000204E
:100720001000002000280DDB00F01F020121914085
:100730004009800000F1E020C0F88011BFF34F8F26
:10074000BFF36F8F7047002809DB00F01F02012103
:1007500091404009800000F1E020C0F8001170478E
:10076000F0B40E4B1B680C46C3F30223C3F107051C
:10077000042D00D90425191D072901D2002300E00A
:10078000DB1E012606FA05F1491E214099409E40D4
:10079000761E16403143F0BC00F0FBBC0CED00E0CF
:1007A0002DE9F0470F46050061D0434E306800F058
:1007B0000700B84209D2306820F0070038433060A3
:1007C000306800F00700B84251D128683B4C8107DF
:1007D00012D5400703D5606840F4E0606060287877
:1007E000000703D5606840F4605060606068A968E5
:1007F00020F0F000084360602878C00728D06868BF
:10080000012810D02168022810D0890700292EDA8B
:10081000616821F0030101436160FFF755FF8046E5
:1008200041F288390DE021688903EFE78901EDE79E
:10083000FFF74AFFA0EB0801494502D90320BDE8B4
:10084000F0876068696800F00C00B0EB810FEFD1B1
:10085000306800F00700B8420BD9306820F007007C
:1008600038433060306800F00700B84201D0012002
:10087000E5E72878400705D56068E96820F4E0607E
:10088000084360602878000706D56068296920F46D
:10089000605040EAC100606000F038F86168084AC2
:1008A000C1F30311515CC84006490860064800685E
:1008B000FFF718FF0020C2E70020024000100240AE
:1008C0006C150008100000200800002004480549AD
:1008D00000684968044AC1F30221515CC84070476E
:1008E00010000020001002407C1500080448054953
:1008F00000684968044AC1F3C221515CC84070478E
:1009000010000020001002407C15000812A185B0E4
:100910000FC98DE80F0014A0144A006804905168B4
:10092000134801F00C03042B10D0082B0ED1C1F397
:100930008343C9031DF803000AD5516804AAC1F313
:100940004041515C0A4A5043B0FBF1F005B070479A
:1009500008494843FAE700000203040506070809AE
:100960000A0B0C0D0E0F10100102000000100240C7
:1009700000127A0000093D002DE9F84F040070D004
:100980002078C04DC00749D06868C0F381000128B5
:1009900007D06868C0F38100022809D16868C003E5
:1009A00006D52868800339D560680028E7D035E08F
:1009B0006068B0F5803F0BD010B1B0F5A02F11D01A
:1009C000286820F480302860286820F4802002E025
:1009D000286840F480302860606890B1FFF774FEAA
:1009E00006460AE0286840F480202860F0E700BF4F
:1009F000FFF76AFE801B642873D828688003F7D548
:100A00000CE0FFF761FE064605E000BFFFF75CFE65
:100A1000801B6428F0D828688003F7D420789A4E89
:100A200080074FF001094FF0000839D5686810F0D1
:100A30000C0F07D06868C0F38100022809D16868EC
:100A4000C00306D42868800714D52069012808D17E
:100A500010E02069B0B1C6F80090FFF735FE0746F8
:100A600005E00AE1FFF730FEC01B0228C4D8286861
:100A70008007F7D52868616920F0F80040EAC100D6
:100A800028600DE0C6F80080FFF71EFE074604E070
:100A9000FFF71AFEC01B022823D828688007F7D466
:100AA000207800072CD57948A169D9B1C0F8009009
:100AB000FFF70AFE074604E0FFF706FEC01B022808
:100AC0000FD8686A8007F7D571484FF4FA5100686B
:100AD000B0FBF1F0009000BF0098411E0091FAD2E7
:100AE0000EE080E0C0F80080FFF7EEFD074604E06E
:100AF000FFF7EAFDC01B022875D8686A8007F7D4A3
:100B00002078400760D5E8690027C00008D4E8696C
:100B100040F08050E861E869012700F080500090C3
:100B20005C480168C90513D40168834641F48071AB
:100B30000160FFF7C9FD824606E000BFFFF7C4FD74
:100B4000A0EB0A0064284ED8DBF80000C005F5D5FC
:100B5000E06801280AD008B1052813D0286A20F0DF
:100B600001002862286A20F0040002E0286A40F0B0
:100B700001002862E06841F2883B98B1FFF7A4FDCC
:100B800082460BE0286A40F004002862EEE700BFCE
:100B9000FFF79AFDA0EB0A0159455AD8286A800749
:100BA000F6D50CE0FFF790FD824605E0FFF78CFDDF
:100BB000A0EB0A0159454CD8286A8007F6D41FB12A
:100BC000E86920F08050E861E06988B36968C1F3A2
:100BD0008101022944D00228C6F8608004D0FFF7C2
:100BE00073FD044638E034E0FFF76EFD074604E08D
:100BF000FFF76AFDC01B02282BD828688001F7D4B4
:100C0000206AB0F5803F05D16868A16820F4003003
:100C100008436860D4E908010843696821F4741145
:100C200008436860C6F86090FFF74EFD044606E092
:100C300025E000BFFFF748FD001B022809D82868FF
:100C40008001F7D51BE000BFFFF73EFD001B022827
:100C500002D90320BDE8F88F28688001F4D40EE0A3
:100C60000128F7D06868226A00F48031914204D1EB
:100C7000616A00F47010884201D00120EAE7002088
:100C8000E8E70000001002400000424280044242B7
:100C9000100000200070004010B5401EB0F1807FB1
:100CA00001D3012010BD4FF0E02460610F216017D7
:100CB00000F06FFA0020A06107202061002010BD25
:100CC00070477047704770B50446006801694FF07F
:100CD0000005C943890715D4C168C943890711D4E0
:100CE000E91E016101202077206880698007204685
:100CF00002D0FFF7E7FF04E000F098F8204600F08C
:100D000096F8257720680169C943490717D4C16857
:100D1000C943490713D46FF0040101610220207711
:100D20002068806910F4407F204602D0FFF7CAFF98
:100D300004E000F07BF8204600F079F82577206881
:100D40000169C943090716D4C168C943090712D408
:100D50006FF008010161042020772068C0698007D6
:100D6000204602D0FFF7AEFF04E000F05FF8204617
:100D700000F05DF8257720680169C943C90617D4DA
:100D8000C168C943C90613D46FF01001016108207E
:100D900020772068C06910F4407F204602D0FFF71A
:100DA00091FF04E000F042F8204600F040F825777B
:100DB00020680169C943C90708D1C168C943C90787
:100DC00004D1891E0161204600F032F820680169D3
:100DD000C943090609D4C168C943090605D46FF09F
:100DE000800101612046FFF76BFF20680169C9435C
:100DF000490609D4C168C943490605D46FF04001CA
:100E00000161204600F01AF820680169C94389068B
:100E10000BD4C168C943890607D46FF02001016172
:100E20002046BDE87040FFF74CBF70BD704770476B
:100E3000014901200870704700000020704770B51C
:100E4000040004D094F83D00002510B106E0012014
:100E500070BD84F83C50204600F022F8242084F82D
:100E60003D002068C16821F40051C160204600F0B7
:100E7000C9F82068016921F4904101612068416945
:100E800021F02A0141612068C16841F40051C1602C
:100E90002564202084F83D0084F83E00002070BDC9
:100EA000704700002DE9F843044690F83D001F46C6
:100EB00016460D4620284CD1C5B1BEB194F83C0071
:100EC000012846D0012084F83C004FF00008C4F807
:100ED0004080212084F83D00FFF7F6FBA684814680
:100EE000E684A068B0F5805F03D004E00120BDE88F
:100EF000F883206928B12E465FF0000584F83C8015
:100F00000EE00026FAE78021204600F0D7F8A0B9CD
:100F1000AEB116F8010B21684860E08C401EE084F9
:100F2000E08C4B464FF0000200970028EBD14FF0C9
:100F30004001204600F0C2F830B10320D7E735F871
:100F4000020BC0F30800E6E7202084F83D000020F3
:100F5000CDE70220CBE7FEE70E4800B5816985B0FA
:100F600041F0080181618069694600F00800049041
:100F70003020009001200190029003200390064849
:100F8000FFF7A0FA04482021103001601021016011
:100F900005B000BD00100240000C0140FEE77047A4
:100FA00070477047FFF796BB30B58FB02821684671
:100FB000FFF7E1F814210AA8FFF7DDF80121080482
:100FC000CDE900100024029402250491CDE90750D8
:100FD0004FF4E01009906846FFF7CEFC0F20CDE9F2
:100FE0000A056802CDE90C4002210AA80E94FFF719
:100FF000D7FB0FB030BD70470148FFF764BE00005B
:101000003400002070B5044600680169E26821F4EC
:101010004051114301612169A06808436169084397
:101020002168CA6841F20C639A430243CA6020688F
:101030004169A26921F44071114341611E49206850
:10104000884202D1FFF752FC01E0FFF73FFC00EBC2
:10105000C00101EB0012606864218000B2FBF0F374
:10106000B3FBF1F36FF018067343B2FBF0F5B2FB7C
:10107000F0F605EB8305322303EB0515B5FBF1F51F
:10108000B6FBF1F605F0F00505EB0615B2FBF0F640
:10109000B2FBF0F0B0FBF1F06FF01802504306EB3A
:1010A000800003EB0010B0FBF1F0216800F00F00AE
:1010B0002844886070BD0000003801402DE9F041EF
:1010C000984617460E460446069D1DE0681C1BD038
:1010D0002DB1FFF7F9FAA0EB0800A84214D9206857
:1010E000C16821F4D071C1602068416921F001011B
:1010F0004161202084F83D0084F83E00002084F8FF
:101100003C000320BDE8F0812068006836EA00005A
:1011100004D00020B842D9D00020F3E70120F9E73D
:10112000064800680168C943890606D44068C0B211
:10113000632802D10249012008707047C0000020D6
:101140000100002038B50F48416941F001014161BB
:1011500040690E4C00F0010000900B482060102008
:10116000606000208021C4E9020120616061A0610B
:101170004801E0612046FFF767F904F14400446349
:10118000606238BD00100240440002407C00002034
:10119000FEE70907090E002804DB00F1E02080F8D3
:1011A0000014704700F00F0000F1E02080F8141DDB
:1011B000704702E008C8121F08C1002AFAD1704720
:1011C0007047002001E001C1121F002AFBD17047C7
:1011D00070B5002000F054F90120FFF7F8F8124E26
:1011E0004FF4804529463046FFF768FA07E00A20A9
:1011F000FFF7EDF829463046FFF760FA0446002C69
:10120000F5D1002000F050F8012000F039F901205C
:10121000FFF7DDF84FF480510448FFF74FFABDE8BF
:101220007040012000F040B800180140000C01405F
:1012300070B51A4C4FF4006525600120FFF7AEF839
:10124000174920200860060226600021032000F0D4
:10125000C1F8A0052060002000F09EF80120FFF7F3
:101260009DF8002000F00CF960150E4C2060012064
:10127000FFF794F8266025600121032000F0AAF80A
:1012800068012060012000F087F80120FFF786F850
:10129000BDE87040012000F0F3B8000010180140D4
:1012A00010080140100C01402DE9F05F36494FF065
:1012B0000052A0B3354F90103860DFF8D0B00F2542
:1012C00090464FF400594FF4804AABF1100B0026C2
:1012D0001420FFF77CF80024C7F800801920FFF7DE
:1012E00076F851465846FFF7E9F9C4F10F018840F6
:1012F000304486B2C7F800902320FFF768F8641CDA
:10130000E4B2102CE8D3204820F815606D1EEDB231
:10131000072DDCD84FF400603860BDE8F09FFFE790
:101320001B480260DFF86CA01A4F00254FF400192B
:10133000AAF1100A4FF020088B4600261420FFF770
:1013400046F80024C7F800901920FFF740F8402124
:101350005046FFF7B3F9C4F10F018840304486B21C
:10136000C7F800802320FFF732F8641CE4B2102C89
:10137000E8D32BF815606D1CEDB2082DDDD30449C0
:101380004FF400500860C8E714000020100C014022
:10139000101801401008014070B568B10B4C4FF0B7
:1013A000806525600A20FFF712F8201520600120D3
:1013B000FFF703F8256070BD054C4FF080552560A0
:1013C0000A20FFF704F8A014F0E70000100C014019
:1013D00010180140F0B54FF00074274A6610A510B0
:1013E000264B4FF0800C4FF4007E01280ED097154D
:1013F000022810D0032813D004281ED0052825D099
:1014000006282CD079B31D601E601DE009B11D6057
:101410001FE0146021E009B11D6014E0146025E0B4
:1014200029B11D60C3F80070C3F800E0F0BD14607E
:10143000C2F80070C2F800C0F0BD89B9C2F800E07F
:1014400017E01560F0BD1F601C60F0BD19B1C3F856
:1014500000C01E60E8E7C2F800E01660EAE719B1D4
:10146000C3F800C0EFE703E0C2F800E01760E8E768
:1014700014601660E5E700001014014010180140E8
:1014800010B548B1094C4FF0007020606420FEF7A1
:101490009EFF6015206010BD054C4FF0006020607D
:1014A0006420FEF794FFE014F4E70000100C014004
:1014B000101801402DE9F0414FF480440C4D0D4FC0
:1014C000A61021462846FFF7F9F80028F9D1314641
:1014D0003846FFF7F3F80028F3D11E20FFF722F972
:1014E0000020FFF759FFBDE8F0410120FFF754BF8E
:1014F00000180140000C014088B020216846FEF72A
:101500003AFEFFF751FDFEF779FFFFF725FDFEF7E5
:10151000EDFEFFF717FEFEF74BFEFFF789FE104DBD
:10152000104E00276C4628780028FCD02F70FFF75B
:101530004FFE00214FEA010036F81020401C130A2C
:1015400063546318891CC0B25A70C9B21028F3D30F
:101550000323202269460448FFF7A4FCE3E70000C8
:101560000100002014000020C00000200000000046
:101570000000000001020304060708090000000043
:1015800001020304A415000800000020140000005C
:10159000B2110008B815000814000020F40400007F
:1015A000C21100080000000001000000100000004F
:0815B000000000000024F4001B
:0400000508000131BD
:00000001FF
