:020000040800F2
:1000000008060020450100089B1A00082718000870
:10001000991A0008070600080520000800000000E3
:10002000000000000000000000000000911B00081C
:1000300071060008000000009D1A0008931B0008CC
:100040005F0100085F0100085F0100085F01000810
:100050005F0100085F010008730600085F010008E7
:100060005F0100085F0100085F0100085F010008F0
:100070005F0100085F0100085F0100085F010008E0
:100080005F0100085F0100085F0100085F010008D0
:100090005F0100085F0100085F0100085F010008C0
:1000A0005F0100085F0100085F0100085F010008B0
:1000B000E91B0008F51B00085F0100085F0100084C
:1000C0005F0100085F0100085F0100085F01000890
:1000D0005F010008B51F00085F0100085F0100080C
:1000E000790600085F0100085F0100085F01000851
:1000F0005F0100085F0100085F0100085F01000860
:100100005F0100085F0100085F0100085F0100084F
:100110005F0100085F0100085F0100085F0100083F
:100120005F0100085F0100085F0100085F0100082F
:10013000DFF80CD000F0E4F9004800474F20000839
:10014000080600200648804706480047FEE7FEE70D
:10015000FEE7FEE7FEE7FEE7FEE7FEE7FEE7FEE777
:10016000E51B000831010008202A04DB203A21FAAF
:1001700002F00021704721FA02F3D040C2F12002C0
:100180009140084319467047D2B201E000F8012BB4
:10019000491EFBD270470022F6E710B513460A4607
:1001A00004461946FFF7F0FF204610BD70B506461D
:1001B00001F03AFF046805460A220021304600F0AB
:1001C00009F92C6070BD2DE9FE4F81EA030404F0AB
:1001D000004421F0004100944FF0000B23F0004355
:1001E00050EA01045ED052EA03045BD0C3F30A5420
:1001F000C1F30A552C44A4F2F3340194A0FB025439
:10020000C1F3130141F48011C3F3130343F48013CA
:1002100001FB024400FB034E840A970A44EA81541E
:1002200047EA8357A4FB076802958D0A05FB0785FB
:100230004FEA932C04FB0C542705029D4FEA065805
:1002400047EA1637B5EB08056EEB070C870E920EE2
:1002500047EA811742EA8312A7FB0201B6EB0B01C2
:1002600064EB00042B0D43EA0C335E1844EB1C5086
:10027000DA465146E7FB0201C5F313044FEA0B339C
:1002800043EA14534FEA0432019C43EA0603A4F103
:100290000C040294009CCDE900B400F0E2F803B035
:1002A000BDE8F08F00200146F9E72DE9F04D81EA25
:1002B000030404F0004B21F0004514464FF0000AFF
:1002C00023F0004150EA050220D054EA01021DD07B
:1002D000C5F30A570246C5F31303C1F31300C1F374
:1002E0000A5640F4801543F48013A7EB0608101B50
:1002F000D64608F2FD3873EB050002D308F1010879
:1003000001E092185B41B8F1000F03DA00200146CA
:10031000BDE8F08D00204FF48011064684460EE0C3
:10032000171B73EB050705D3121B63EB050306438D
:100330004CEA010C49084FEA300092185B4150EA40
:100340000107EDD152EA030012D082EA040083EAE9
:100350000501084305D0101BAB4106D20122002342
:1003600006E000224FF0004302E06FF0010253105C
:100370001AEB06004CEB085110EB0A0041EB0B01A5
:10038000BDE8F04D00F05EB80EB540F23341029189
:100390000021CDE900110A460B4600F062F803B0D7
:1003A00000BDC1F30A5210B5C1F3130140F2FF338F
:1003B00041F480119A4201DA002010BD40F233432B
:1003C0009A42A2F2334203DC5242FFF7CDFE10BD47
:1003D000904010BD2DE9F04791460F4680460446F7
:1003E000002614F8015B2DB100F0ACF80068405D08
:1003F000C007F6D12B2D02D02D2D18D0641E4A46F1
:100400003946204600F0A2F827B13968A14201D14F
:10041000C7F8008071054FF002040BD54042002858
:1004200003DD01F001FE0460A007BDE8F08746F49B
:100430008066E4E70028F8DA01F0F6FD04606FF06A
:100440000040F2E710B5141E73F1000408DA401CF6
:1004500041F1000192185B411A4301D120F00100E3
:1004600010BD2DE9F04D92469B4611B1B1FA81F2D3
:1004700002E0B0FA80F22032904600F053F80446D1
:100480000F4640EA0A0041EA0B0153465A46084328
:1004900013D0114653EA010019D0C8F1400250466A
:1004A000FFF762FE05460E4650465946424600F0AA
:1004B00039F8084305D0012004E020463946BDE85C
:1004C000F08D0020054346EAE0762C4337430A9836
:1004D0006305E40AA0EB08000022FD0A44EA475441
:1004E0000A3002D500200146E9E7010510196941EB
:1004F000DDE9084500196941BDE8F04DA2E70000BB
:10050000064C074D06E0E06840F0010394E8070060
:1005100098471034AC42F6D3FFF70EFE20210008B6
:1005200040210008202A04DB203A00FA02F10020D2
:1005300070479140C2F1200320FA03F31943904021
:1005400070470000004870471C2100082DE9F05F4B
:1005500082460078002715468B460AF10104B94609
:10056000302801D09DB113E014F8010B0127782841
:1005700003D0582801D045B10AE00DB1102D07D1A4
:100580000027102514F8010B02E0082500E00A25D9
:100590000026B0460EE005FB080005FB06F101272A
:1005A00001EB10461FFA80F8B6F5803F00D3B9463C
:1005B00014F8010B294600F018F80028EBDABBF11B
:1005C000000F05D00FB1641E00E05446CBF8004088
:1005D000B9F1000F06D001F027FD02210160C81E0D
:1005E000BDE8F09F48EA0640FAE73A2800D23038E2
:1005F00020F02002412A01D3A2F13700884201D322
:100600004FF0FF307047FEE710B5174C20780128F7
:1006100029D116480178662906D062290AD06C29AA
:100620000ED0722912D018E0401CFFF7BFFD014622
:10063000002010E0401CFFF7B9FD014601200AE050
:10064000401CFFF7B3FD0146022004E0401CFFF709
:10065000ADFD0146032001F023FA00202070BDE823
:10066000104001F003BD10BD00000020C0000020BC
:100670007047012000F040B84FF4005000F03CB843
:100680007047000070B5044600F044F90546601C50
:1006900002D004480078044400F03CF9401BA0421A
:1006A000FAD370BD0400002010B5124C012811D0FF
:1006B00000220121204600F027F9012220212046B6
:1006C00000F022F9012001F017FA0120BDE81040E6
:1006D00001F01EBA01221146204600F015F9002251
:1006E0002021204600F010F9002001F005FA00203A
:1006F000ECE70000000C0140044910B50A68024212
:1007000002D00860FFF7D0FF10BD000014040140C4
:100710002DE9F84FDFF8C891002409F1040A0AF125
:10072000040B23460F270BF1040ED1E00125A54051
:1007300006EA0502AA4276D1DFF8A8C14E68A6EB08
:100740000C0866452BD00DDC032E34D005DC36B307
:10075000012E19D0022E2FD11BE0112E16D0122EF1
:100760002AD119E0B8F5881F19D006DCB8F5803F0A
:1007700015D0B8F5801F1FD111E0B8F5001F0ED0BD
:10078000B8F5041F18D10AE0CB6815E0CB681B1D33
:1007900012E0CB6808330FE0CB680C330CE08B68B9
:1007A0002BB1012B4FF0080303D0456104E0042373
:1007B00002E0056100E00023FF2A01D8064601E0BF
:1007C00000F104064FEA840501D9A5F12005D6F809
:1007D000008007FA05FC28EA0C0803FA05F548EA48
:1007E0000508C6F800804D68ED0070D53E4DAE6935
:1007F00046F00106AE61AD6924F0030605F001057F
:1008000000953A4D06EB050CDCF80850A607360FAC
:1008100007FA06F825EA0805DFF8D480404503D139
:100820004FF0000825E052E0DFF8C880404502D1D3
:100830004FF001081DE0DFF8C080404502D14FF0C5
:10084000020816E0DFF8B480404502D14FF00308FB
:100850000FE0DFF8AC80404502D14FF0040808E01B
:10086000DFF8A080404502D14FF0050801E04FF0CD
:10087000060808FA06F848EA0508CCF808804D682A
:10088000D9F80060ED034D4601D5164300E09643CC
:100890002E604D68DAF80060AD03554601D5164369
:1008A00000E096432E604D68DBF80060ED025D4687
:1008B00001D5164300E096432E604D68DEF80060D7
:1008C000AD02754601D5164300E096432E60641CC8
:1008D0000A681646E2407FF429AFBDE8F88F0000B1
:1008E000000401400000111000100240000001400F
:1008F00000080140000C01400010014000140140BC
:1009000000180140001C01400AB101617047090450
:10091000FBE70000014880687047000004000020E9
:100920000248816802781144816070470400002009
:10093000074810B5016841F010010160032000F084
:1009400075F8002000F006F800F024F8002010BD33
:100950000020024070B50D4D04464FF47A7128789E
:10096000B1FBF0F00A490968B1FBF0F000F0ECFAD5
:1009700048B9102C07D200222146501E00F036F84C
:1009800000206C6070BD012070BD000004000020DC
:10099000100000200C4808B5816941F00101816117
:1009A000816901F001010091C16941F08051C1618B
:1009B000C06900F0805000900448416821F0E06177
:1009C00041F00071416008BD00100240000001408C
:1009D000002809DB00F01F0201219140400980003E
:1009E00000F1E020C0F8001170470000F0B40E4B99
:1009F0001B680C46C3F30223C3F10705042D00D97D
:100A00000425191D072901D2002300E0DB1E012661
:100A100006FA05F1491E214099409E40761E164077
:100A20003143F0BC01F0EFBA0CED00E0064900F0F4
:100A3000070208684FF6FF03184040EA0220034A05
:100A400010430860704700000CED00E00000FA055C
:100A50002DE9F0470F46050061D0434E306800F0A5
:100A60000700B84209D2306820F0070038433060F0
:100A7000306800F00700B84251D128683B4C81072C
:100A800012D5400703D5606840F4E06060602878C4
:100A9000000703D5606840F4605060606068A96832
:100AA00020F0F000084360602878C00728D068680C
:100AB000012810D02168022810D0890700292EDAD9
:100AC000616821F0030101436160FFF723FF804665
:100AD00041F288390DE021688903EFE78901EDE7EC
:100AE000FFF718FFA0EB0801494502D90320BDE834
:100AF000F0876068696800F00C00B0EB810FEFD1FF
:100B0000306800F00700B8420BD9306820F00700C9
:100B100038433060306800F00700B84201D001204F
:100B2000E5E72878400705D56068E96820F4E060CB
:100B3000084360602878000706D56068296920F4BA
:100B4000605040EAC100606000F038F86168084A0F
:100B5000C1F30311515CC8400649086006480068AB
:100B6000FFF7F8FE0020C2E700200240001002401C
:100B700080200008100000200800002004480549DB
:100B800000684968044AC1F30221515CC8407047BB
:100B90001000002000100240902000080448054981
:100BA00000684968044AC1F3C221515CC8407047DB
:100BB00010000020001002409020000812A185B013
:100BC0000FC98DE80F0014A0144A00680490516802
:100BD000134801F00C03042B10D0082B0ED1C1F3E5
:100BE0008343C9031DF803000AD5516804AAC1F361
:100BF0004041515C0A4A5043B0FBF1F005B07047E8
:100C000008494843FAE700000203040506070809FB
:100C10000A0B0C0D0E0F1010010200000010024014
:100C200000127A0000093D002DE9F84F040070D051
:100C30002078C04DC00749D06868C0F38100012802
:100C400007D06868C0F38100022809D16868C00332
:100C500006D52868800339D560680028E7D035E0DC
:100C60006068B0F5803F0BD010B1B0F5A02F11D067
:100C7000286820F480302860286820F4802002E072
:100C8000286840F480302860606890B1FFF742FE29
:100C900006460AE0286840F480202860F0E700BF9C
:100CA000FFF738FE801B642873D828688003F7D5C7
:100CB0000CE0FFF72FFE064605E000BFFFF72AFE17
:100CC000801B6428F0D828688003F7D420789A4ED7
:100CD00080074FF001094FF0000839D5686810F01F
:100CE0000C0F07D06868C0F38100022809D168683A
:100CF000C00306D42868800714D52069012808D1CC
:100D000010E02069B0B1C6F80090FFF703FE074677
:100D100005E00AE1FFF7FEFDC01B0228C4D82868E1
:100D20008007F7D52868616920F0F80040EAC10023
:100D300028600DE0C6F80080FFF7ECFD074604E0F0
:100D4000FFF7E8FDC01B022823D828688007F7D4E6
:100D5000207800072CD57948A169D9B1C0F8009056
:100D6000FFF7D8FD074604E0FFF7D4FDC01B0228BB
:100D70000FD8686A8007F7D571484FF4FA510068B8
:100D8000B0FBF1F0009000BF0098411E0091FAD234
:100D90000EE080E0C0F80080FFF7BCFD074604E0ED
:100DA000FFF7B8FDC01B022875D8686A8007F7D422
:100DB0002078400760D5E8690027C00008D4E869BA
:100DC00040F08050E861E869012700F08050009011
:100DD0005C480168C90513D40168834641F48071F9
:100DE0000160FFF797FD824606E000BFFFF792FD26
:100DF000A0EB0A0064284ED8DBF80000C005F5D54A
:100E0000E06801280AD008B1052813D0286A20F02C
:100E100001002862286A20F0040002E0286A40F0FD
:100E200001002862E06841F2883B98B1FFF772FD4B
:100E300082460BE0286A40F004002862EEE700BF1B
:100E4000FFF768FDA0EB0A0159455AD8286A8007C8
:100E5000F6D50CE0FFF75EFD824605E0FFF75AFD90
:100E6000A0EB0A0159454CD8286A8007F6D41FB177
:100E7000E86920F08050E861E06988B36968C1F3EF
:100E80008101022944D00228C6F8608004D0FFF70F
:100E900041FD044638E034E0FFF73CFD074604E03E
:100EA000FFF738FDC01B02282BD828688001F7D433
:100EB000206AB0F5803F05D16868A16820F4003051
:100EC00008436860D4E908010843696821F4741193
:100ED00008436860C6F86090FFF71CFD044606E012
:100EE00025E000BFFFF716FD001B022809D828687F
:100EF0008001F7D51BE000BFFFF70CFD001B0228A7
:100F000002D90320BDE8F88F28688001F4D40EE0F0
:100F10000128F7D06868226A00F48031914204D138
:100F2000616A00F47010884201D00120EAE70020D5
:100F3000E8E7000000100240000042428004424204
:100F4000100000200070004010B5401EB0F1807FFE
:100F500001D3012010BD4FF0E02460610F21601724
:100F600001F051F80020A06107202061002010BD91
:100F70007047704770B590F83C20012A2CD00124AE
:100F800080F83C40022280F83D2003685A689D6842
:100F900022F070060A6832435A60104B02689A4287
:100FA0000ED00F4B9A420BD0B2F1804F08D00D4BB0
:100FB0009A4205D00C4B9A4202D00C4B9A4204D173
:100FC000496825F080031943916080F83D40002175
:100FD00080F83C10084670BD022070BD002C014016
:100FE000003401400004004000080040000C0040B4
:100FF00010B5040003D094F83D0010B107E00120C3
:1010000010BD002084F83C00204600F01FF80220AC
:1010100084F83D00211D206800F0F2FD012084F8D5
:10102000460084F83E0084F83F0084F8400084F8CD
:10103000410084F8420084F8430084F8440084F8B6
:10104000450084F83D00002010BD000008B501688F
:101050001448B1F1804F14D0134A914220D1C16994
:1010600041F00201C161C069002200F0020000905D
:1010700011461D20FFF7BAFC1D20BDE80840FFF710
:10108000A7BCC16941F00101C161C069002200F043
:101090000100009011461C20FFF7A8FC1C20ECE783
:1010A00008BD0000001002400004004070B5044676
:1010B00090F83C00012817D0012584F83C5002200C
:1010C00084F83D002068826822F0770222F47F4293
:1010D00082600868502830D00DDC20284DD005DC17
:1010E00098B310283BD148E0022070BD302844D08E
:1010F000402834D139E0602828D0702806D0B0F5D7
:10110000805F2CD0B0F5005F29D10AE0CB68D1E92F
:101110000121206800F0C7FD2068816841F0770157
:1011200009E0CB68D1E90121206800F0BCFD20680E
:10113000816841F48041816011E0CA684968206893
:1011400000F086FE5021206807E016E0CA68496872
:10115000206800F08EFE6021206800F0AEFD84F86B
:101160003D50002084F83C0070BDCA684968206882
:1011700000F06EFE40212068EFE72268014610462D
:10118000EBE7704770B50446006801694FF0000551
:10119000C943890715D4C168C943890711D4E91E19
:1011A000016101202077206880698007204602D0F5
:1011B000FFF7E7FF04E000F0CBF8204600F05AF913
:1011C000257720680169C943490717D4C168C94315
:1011D000490713D46FF004010161022020772068D1
:1011E000806910F4407F204602D0FFF7CAFF04E078
:1011F00000F0AEF8204600F03DF92577206801693F
:10120000C943090716D4C168C943090712D46FF04E
:1012100008010161042020772068C069800720460A
:1012200002D0FFF7AEFF04E000F092F8204600F095
:1012300021F9257720680169C943C90617D4C16817
:10124000C943C90613D46FF010010161082020774B
:101250002068C06910F4407F204602D0FFF791FF5C
:1012600004E000F075F8204600F004F925772068C6
:101270000169C943C90708D1C168C943C90704D175
:10128000891E0161204600F001FA20680169C94306
:10129000090609D4C168C943090605D46FF0800165
:1012A00001612046FFF764FE20680169C9434906D1
:1012B00009D4C168C943490605D46FF040010161F2
:1012C000204600F0E4F920680169C94389060BD47F
:1012D000C168C943890607D46FF020010161204627
:1012E000BDE87040FFF745BE70BD000010B586B088
:1012F000002100910191029103910368114902229A
:101300001148B3F1804F13D0104CA3420ED18B691A
:1013100043F004038B61896901F0040104914021C9
:10132000CDE9001269460392FFF7F2F906B010BD4D
:101330008B6943F004038B61896901F00401049116
:101340000821EDE7001002400008014000040040C1
:10135000704770B5044690F83C000D4601280AD04D
:10136000012084F83C0042B1042A18D0082A2AD06F
:101370000C2A4DD139E0022070BD206800F0A6FC97
:101380002068816941F0080181612068816921F04C
:1013900004018161206881692A69114311E0206894
:1013A00000F0C4FC2068816941F40061816120681B
:1013B000816921F480618161206881692A6941EA3B
:1013C0000221816124E0206800F0E6FC2068C16908
:1013D00041F00801C1612068C16921F00401C161C7
:1013E0002068C1692A69114311E0206800F008FDF6
:1013F0002068C16941F40061C1612068C16921F4BC
:101400008061C1612068C1692A6941EA0221C16124
:10141000002084F83C0070BD10B5040003D094F89F
:101420003D0010B107E0012010BD002084F83C0011
:10143000204600F01EF8022084F83D00211D20689F
:1014400000F0DEFB012084F8460084F83E0084F8BA
:101450003F0084F8400084F8410084F8420084F89A
:10146000430084F8440084F8450084F83D000020DF
:1014700010BD7047F8B506461D4800271D4C864232
:101480000FD1D4E90110884202D2401CA06008E0CC
:1014900000211748A76000F0A1F8207820F0010093
:1014A0002070144D14480C3586420FD1D5E9011037
:1014B000884202D2401CA86008E00C210E48AF60B0
:1014C00000F08CF8287820F0010028702078C00700
:1014D0000CD12878C00709D179208DF800004FF48D
:1014E0007A7301226946054800F044F9F8BD00000E
:1014F000780000201800002030000020C0010020EB
:1015000010B50446022249B1042912D008291CD082
:1015100094F84100012823D0012010BD94F83E002A
:101520000128F9D184F83E202068C26842F0020206
:1015300009E094F83F000128EED184F83F202068AC
:10154000C26842F00402C2600EE094F84000012834
:10155000E2D184F840202068C26842F00802F2E735
:1015600084F841200C292AD00122206800F08EFB4B
:1015700015492068154A884201D0904203D1436C36
:1015800043F400434364206888420DD090420BD05E
:10159000B0F1804F08D00E49884205D00D498842ED
:1015A00002D00D49884204D1816801F00701062963
:1015B00003D0016841F001010160002010BD2068E6
:1015C000C26842F01002BEE7002C01400034014026
:1015D0000004004000080040000C004030B5044604
:1015E00000680D0006D0042D08D0082D38D00C2D31
:1015F00008D139E0C16821F0020102E0C16821F0A0
:101600000401C16000222946206800F03FFB1D4B09
:1016100041F2111120688A10984202D01A4B984268
:1016200009D1036A0B4206D1036A134203D1436C0A
:1016300023F4004343642068036A0B4206D1016A25
:10164000114203D1016821F00101016001207DB147
:10165000042D10D0082D11D084F84100002030BD99
:10166000C16821F00801CCE7C16821F01001C8E78A
:1016700084F83E00F2E784F83F00EFE784F840008A
:10168000ECE70000002C0140003401407047704737
:1016900070B5040004D094F83D00002510B106E0B8
:1016A000012070BD84F83C50204600F023F824202F
:1016B00084F83D002068C16821F40051C1602046D3
:1016C00000F0EAFB2068016921F490410161206883
:1016D000416921F02A0141612068C16841F400514B
:1016E000C1602564202084F83D0084F83E0000207D
:1016F00070BD000030B585B00024009401940294C0
:1017000003940068184988422CD11848816941F433
:1017100080418161816901F480410491816941F0D6
:10172000040181618069124D00F0040004904FF4BF
:101730000070009002200190032003906946284623
:10174000FEF7E6FF2815CDE9000469462846029415
:10175000FEF7DEFF002211462520FFF747F925207E
:10176000FFF736F905B030BD0038014000100240E7
:10177000000801402DE9F843044690F83D001F465B
:1017800016460D4620284CD1C5B1BEB194F83C0098
:10179000012846D0012084F83C004FF00008C4F82E
:1017A0004080212084F83D00FFF7B4F8A6848146EC
:1017B000E684A068B0F5805F03D004E00120BDE8B6
:1017C000F883206928B12E465FF0000584F83C803C
:1017D0000EE00026FAE78021204600F0B9FBA0B910
:1017E000AEB116F8010B21684860E08C401EE08421
:1017F000E08C4B464FF0000200970028EBD14FF0F1
:101800004001204600F0A4FB30B10320D7E735F8B3
:10181000020BC0F30800E6E7202084F83D0000201A
:10182000CDE70220CBE7FEE72DE9F04186B00020AE
:1018300000900190029003903548816941F0400189
:101840008161816901F040010491816941F01001D9
:101850008161816901F010010491816941F0040105
:101860008161816901F004010491816941F00801FD
:1018700081618069274E00F00800049000226021F9
:101880003046FFF741F8DFF8908045F2210700224B
:1018900039464046FFF738F8012221214046FFF73C
:1018A00033F801246020CDE9000402256946304662
:1018B000CDE90245FEF72CFF184E6003CDE9000686
:1018C000694602941648FEF723FFCDE900466946B3
:1018D00014480294FEF71CFFCDE9007469464046A7
:1018E000CDE90245FEF714FF002211460620FFF75E
:1018F0007DF80620FFF76CF8002211462820FFF73C
:1019000075F82820FFF764F806B0BDE8F081000004
:101910000010024000180140000C014000001110AE
:10192000001001400008014010B58EB0002407945B
:10193000089409940A940B941C2168460C94FEF7B1
:101940002AFC1E484FF0804101604721C0E9011484
:10195000C721C0E903148461FFF74AFB08B1FEF711
:101960008FFE4FF48050079007A91448FFF79EFBA5
:1019700008B1FEF785FE1148FFF74EFD08B1FEF7EE
:101980007FFE0B940BA90D480C94FFF7F3FA08B1F6
:10199000FEF776FE602000906420CDE901040C2261
:1019A000694606480494FFF7D4FC08B1FEF768FEC8
:1019B0000248FFF79BFC0EB010BD00003000002075
:1019C00010B58EB000240794089409940A940B94DF
:1019D0001C2168460C94FEF7DEFB1E481C49016082
:1019E0004721C0E90114C721C0E903148461FFF74E
:1019F000FFFA08B1FEF744FE4FF48050079007A9A4
:101A00001448FFF753FB08B1FEF73AFE1148FFF701
:101A100003FD08B1FEF734FE0B940BA90D480C949E
:101A2000FFF7A8FA08B1FEF72BFE602000906420B3
:101A3000CDE901040022694606480494FFF789FCB9
:101A400008B1FEF71DFE0348FFF750FC0EB010BDB5
:101A5000000400407800002010B50E4C0C480C210A
:101A600020604FF4E13060600020A060E060C4E9D5
:101A70000401A061E0612046FFF70AFE08B1FEF70D
:101A8000FFFD2068C16841F02001C16010BD000069
:101A900000380140C0010020FEE770477047000099
:101AA00010B504460846FEF76FFC00220F4BFEF708
:101AB000FCFB00220E4BFEF786FBFEF772FC014694
:101AC0005CB1012C0BD0022C0DD0032C0DD10122C6
:101AD0000848BDE8104000F027B8002200E00122CD
:101AE00004480C30F5E70022F2E710BD0000084082
:101AF0000000A94018000020044B4FF4805108B1A9
:101B0000012200E000221846FEF7FEBE000C014054
:101B1000044B08B1012200E0002240211846FEF7E4
:101B2000F3BE00000018014010B503780024C0E99E
:101B3000011462F3410343F0010101700F4988422F
:101B40000CD10F484FF4804102B10122FEF7DCFEB8
:101B50000A20FEF797FD00210A480AE00A4802B170
:101B600001222021FEF7D0FE0A20FEF78BFD074858
:101B70000C21BDE81040FFF7C3BC00001800002096
:101B8000000C0140780000200018014030000020C7
:101B90007047FEF7C5BE30B58FB028216846FEF706
:101BA000FAFA14210AA8FEF7F6FA01210804CDE991
:101BB00000100024029402250491CDE907504FF44F
:101BC000E01009906846FFF72FF80F20CDE90A05CD
:101BD0006802CDE90C4002210AA80E94FEF738FFF6
:101BE0000FB030BD704700000148FFF7CBBA0000CE
:101BF000300000200148FFF7C5BA0000780000203F
:101C0000F0B502681C4B1D4D1D4E1E4F1E4C4FF073
:101C1000804C984209D0A04207D0604505D0A84228
:101C200003D0B04201D0B84204D122F0700E4A680D
:101C300042EA0E02984209D0A04207D0604505D082
:101C4000A84203D0B04201D0B84203D122F440757B
:101C5000CA682A434D6922F080022A4302608A68DA
:101C6000C2620A688262984201D0A04201D1096929
:101C7000016301214161F0BD002C014000040040DE
:101C800000080040000C00400034014010B501F095
:101C90001F030121046A99408C430462016A9A403F
:101CA0001143016210BD10B5846842EA032224F496
:101CB0007F440A432243826010BD826822F0700292
:101CC0000A4342F00701816070470000F0B5026AE4
:101CD00022F001020262036A42688469124E24F013
:101CE00073050C682C4323F002058B682B430D4DC4
:101CF000A84201D0B04205D123F00807CB683B438E
:101D000023F00403A84201D0B04205D14D6922F46A
:101D1000407215438A692A4342608461496841637D
:101D20000362F0BD002C014000340140F0B5026AAE
:101D300022F010020262026A436884690D6824F48A
:101D4000E64444EA05248D6822F0200242EA0512A6
:101D50000F4D104EA84201D0B04206D1CF6822F0FC
:101D6000800242EA071222F04002A84201D0B042AB
:101D700007D14D6923F4406343EA85038D6943EA43
:101D8000850343608461496881630262F0BD00009D
:101D9000002C014000340140F0B5026A22F4807248
:101DA0000262026A4368C46922F4007224F0730577
:101DB0000C68124E2C438D6842EA05220E4DA84253
:101DC00001D0B04206D1CF6822F4006242EA072275
:101DD00022F48062A84201D0B04207D14D6923F4B9
:101DE000405343EA05138D6943EA05134360C46118
:101DF0004968C1630262F0BD002C0140003401401B
:101E000030B5026A22F480520262046A4268C369F1
:101E10000D6823F4E64343EA05238D6824F4005457
:101E200044EA0534084DA84202D0084DA84204D126
:101E30004D6922F4804242EA85124260C3614968DA
:101E40000164046230BD0000002C014000340140F8
:101E500010B5036A046A24F001040462846924F062
:101E6000F00444EA021423F00A020A438461026285
:101E700010BD10B5036A23F0100303628369046A7E
:101E800023F4704343EA023224F0A00343EA011131
:101E90008261016210BD000070B5044600680169EE
:101EA000E26821F44051114301612169A0680843AF
:101EB000616908432168CA6841F20C639A4302438E
:101EC000CA6020684169A26921F4407111434161EF
:101ED0001E492068884202D1FEF760FE01E0FEF74D
:101EE0004DFE00EBC00101EB001260686421800030
:101EF000B2FBF0F3B3FBF1F36FF018067343B2FBE0
:101F0000F0F5B2FBF0F605EB8305322303EB051584
:101F1000B5FBF1F5B6FBF1F605F0F00505EB06159E
:101F2000B2FBF0F6B2FBF0F0B0FBF1F06FF018028C
:101F3000504306EB800003EB0010B0FBF1F021688A
:101F400000F00F002844886070BD00000038014098
:101F50002DE9F041984617460E460446069D1DE0C1
:101F6000681C1BD02DB1FEF7D5FCA0EB0800A842E1
:101F700014D92068C16821F4D071C160206841691A
:101F800021F001014161202084F83D0084F83E00E9
:101F9000002084F83C000320BDE8F0812068006840
:101FA00036EA000004D00020B842D9D00020F3E780
:101FB0000120F9E70F4810B502681068C043800699
:101FC00017D450680C4CC1B20C4B2078FF2806D2B5
:101FD000195400220344401C5A70207004E0184435
:101FE00000F8011C08205060202902D1044901207A
:101FF000087010BDC001002001000020C0000020BA
:1020000000000020FEE70907090E002804DB00F1AC
:10201000E02080F80014704700F00F0000F1E0208D
:1020200080F8141D7047000000487047140000201D
:1020300002E008C8121F08C1002AFAD17047704791
:10204000002001E001C1121F002AFBD17047FEF7FA
:102050006FFCFFF7A0FDFFF7E7FBFFF765FCFFF75D
:10206000FBFCFFF7ADFCFEF7CFFAFCE702490020CE
:10207000087002490870704701000020C00000206D
:102080000000000000000000010203040607080928
:102090000000000001020304004040404040404076
:1020A000404041414141414040404040404040402B
:1020B00040404040404040404005020202020202CF
:1020C000020202020202020202202020202020201E
:1020D0002020200202020202020290909090909032
:1020E00010101010101010101010101010101010F0
:1020F0001010101002020202020288888888888864
:10210000080808080808080808080808080808084F
:102110000808080802020202400000009920000896
:1021200040210008000000201800000030200008B6
:102130005821000818000020F00500004020000889
:10214000000000000100000010000000000000007E
:082150000024F400000000006F
:0400000508000131BD
:00000001FF
